:100000000C9472000C94F5000C9493000C949300E3
:100010000C9493000C94AC060C9487060C949300FB
:100020000C9493000C9493000C9493000C94930004
:100030000C9493000C9493000C9493000C949300F4
:100040000C9493000C9493000C9493000C949300E4
:100050000C9493000C9493000C9493000C949300D4
:100060000C9493000C9493000C9493000C949300C4
:100070000C9493000C9493000C9493000C949300B4
:100080000C9493000C9493000C9493000C949300A4
:100090000C9493000C9493000C9493000C94930094
:1000A0000C9493000C9493000C9493000C94930084
:1000B0000C9493000C9493000C9493000C94930074
:1000C0000C9493000C9493000C9493000C94930064
:1000D0000C9493000C9493000C9493000C94930054
:1000E0000C94930011241FBECFEFD1E2DEBFCDBF31
:1000F00000E00CBF12E0A0E0B2E0E6EEF4E200E0C7
:100100000BBF02C007900D92A232B107D9F712E0DF
:10011000A2E2B2E001C01D92AA38B107E1F70E9445
:100120001B0F0C9471120C940000F894EAE6F0E0B6
:10013000808182608083EC9A78940895F894EAE64E
:10014000F0E0808188608083ED9A7894089588E05B
:1001500088B9089518B8089587B1876F87B988B1AD
:10016000807888B9089510BA11BA109207011092D8
:1001700008010895EAE7F0E0108210927B0080E227
:1001800080937C0080E880BF86E880830895883073
:1001900018F098E090937B008770806280937C00D9
:1001A000EAE7F0E0808180648083808184FFFDCF76
:1001B00080917900EAE7F0E090819061908310925D
:1001C0007B0008958AB18E6F8AB9589A08950E946B
:1001D000AC000E94E2000895F894E9E6F0E0808126
:1001E00082608083E89A789408951F920F920FB6E8
:1001F0000F9211248F939F93AF93BF9380915802D6
:1002000090915902A0915A02B0915B020196A11DF2
:10021000B11D8093580290935902A0935A02B09353
:100220005B02BF91AF919F918F910F900FBE0F9086
:100230001F901895F8940E94E7000E94EC007894B3
:1002400008955E985F9808955E9A5F9A08955E9803
:100250005F9A08955E9A5F9808955C9A5D9A0895F2
:100260000F931F930E94210110925802109259027D
:1002700010925A0210925B028FEF9FE7A4E0815028
:100280009040A040E1F700C000008091580290919A
:100290005902A0915A02B0915B028093720290932E
:1002A0007302A0937402B0937502009172021091D0
:1002B00073022091740230917502602F712F822F8A
:1002C000932F1F910F9108950F931F930E94240164
:1002D000109258021092590210925A0210925B0228
:1002E0008FEF9FE7A4E081509040A040E1F700C06D
:1002F00000008091580290915902A0915A02B09149
:100300005B0280936A0290936B02A0936C02B0939D
:100310006D0200916A0210916B0220916C02309183
:100320006D02602F712F822F932F1F910F910895CF
:100330000F931F930E9427011092580210925902A6
:1003400010925A0210925B028FEF9FE7A4E0815057
:100350009040A040E1F700C00000809158029091C9
:100360005902A0915A02B0915B0280935C02909373
:100370005D02A0935E02B0935F0200915C02109157
:100380005D0220915E0230915F02602F712F822FFB
:10039000932F1F910F9108950F931F930E942A018D
:1003A000109258021092590210925A0210925B0257
:1003B0008FEF9FE7A6E181509040A040E1F700C099
:1003C00000008091580290915902A0915A02B09178
:1003D0005B028093600290936102A0936202B093EB
:1003E00063020091600210916102209162023091DB
:1003F0006302602F712F822F932F1F910F91089509
:10040000EF92FF920F931F93CF93DF930E943001DF
:10041000DC01CB018093860290938702A09388022F
:10042000B09389020E949801DC01CB0180936E0297
:1004300090936F02A0937002B09371020E946401C6
:10044000DC01CB018093760290937702A09378022F
:10045000B09379020F2EFEEBEF2EF8E0FF2EF02D79
:1004600082E090E061E070E0F7011995CDE2D9E01B
:100470002091860230918702409188025091890232
:1004800082E090E061E070E003E010E0FE01199589
:1004900020916E0230916F02409170025091710272
:1004A00082E090E066E070E0FE011995209176020E
:1004B00030917702409178025091790282E090E089
:1004C0006AE070E0FE01199582E090E06DE070E076
:1004D000F701199540918602509187026091880238
:1004E0007091890280916E0290916F02A0917002CA
:1004F000B091710284179507A607B707C0F4409121
:1005000086025091870260918802709189028091E1
:10051000760290917702A0917802B09179028417C7
:100520009507A607B707D8F481E090E01DC0409179
:100530006E0250916F026091700270917102809111
:10054000760290917702A0917802B0917902841797
:100550009507A607B70730F483E090E005C082E076
:1005600090E002C082E090E0DF91CF911F910F9167
:10057000FF90EF900895CF93DF93EC0182E090E03D
:1005800061E070E00E94BE08C130D10529F480E02E
:1005900092E00E941A090CC0C230D10529F484E00F
:1005A00092E00E941A0904C08AE092E00E941A09AF
:1005B000DF91CF91089581B18F6081B982B1807F41
:1005C00082B9EAE0F1E0808188618083EBE0F1E0CC
:1005D0008081886180830895E1E2F1E010828FEFED
:1005E0008093250191E0909324011092290180933A
:1005F000280110922B0180932A0110922D018093E3
:100600002C0189EA809320018BE08083089592B1C8
:10061000907F8F70982B92B9089586E00E9407030F
:10062000089589E00E940703089585E00E9407036A
:1006300008958AE00E940703089584E00E9407035A
:10064000089580E00E94070308952F923F924F92F1
:100650005F926F927F928F929F92AF92BF92CF9252
:10066000DF92EF92FF921F93CF93DF93D62FBC01BF
:1006700080E090E00E94481128E431EE42E850E426
:100680000E94AF100E941C112B0166247724109247
:100690003102109232021092330210923402109200
:1006A000350210923602109237021092380222243C
:1006B00033242394C1E010E0C0903102D090320284
:1006C000E0903302F0903402809035029090360230
:1006D000A0903702B09038028D2F0E94C700910180
:1006E0008F3210F420E030E09C2FC414D504E604CF
:1006F000F70408F4912F8C2F84149504A604B704F2
:1007000008F4812F892B90E0282B392B21153105F6
:1007100099F20E942103DF91CF911F91FF90EF90FA
:10072000DF90CF90BF90AF909F908F907F906F9011
:100730005F904F903F902F90089582E00E940703B2
:10074000089581E00E940703089588E00E9407034E
:1007500008958093280160932A010895CF93DF9331
:10076000D82FC62F842F0E94C700482F8D2F90E0CE
:100770006C2F70E050E023E030E00E942D09DF9103
:10078000CF9108958F929F92AF92BF92CF92DF92B6
:10079000EF92FF92CF93DF93609114027091150254
:1007A000882777FD8095982F0E944A116B017C0164
:1007B0008090410290904202A0904302B090440287
:1007C000A50194010E9447100E941711DC01CB0182
:1007D000EC0190937D0280937C02C701B601A501D4
:1007E00094010E94461020E030E040EA51E40E946B
:1007F00047100E941711AB01BC01CA0150937F0240
:1008000040937E021C161D0624F010927D02109269
:100810007C021816190624F010927F0210927E02B4
:1008200080917C0290917D028F3F910534F08FEF93
:1008300090E090937D0280937C0280917E02909163
:100840007F028F3F910534F08FEF90E090937F020D
:1008500080937E020E940D0380917C0260917E0253
:100860000E94A903DF91CF91FF90EF90DF90CF908E
:10087000BF90AF909F908F9008958F929F92AF926C
:10088000BF92CF92DF92EF92FF92CF93DF9360916E
:10089000140270911502882777FD8095982F0E9489
:1008A0004A116B017C018090410290904202A0901D
:1008B0004302B0904402A50194010E9447100E9497
:1008C0001711DC01CB01EC0190937D0280937C0237
:1008D000C701B601A50194010E9446100E9417119C
:1008E000AB01BC01CA0150937F0240937E021C16EB
:1008F0001D0624F010927D0210927C021816190633
:1009000024F010927F0210927E0280917C029091DE
:100910007D028F3F910534F08FEF90E090937D0240
:1009200080937C0280917E0290917F028F3F91059F
:1009300034F08FEF90E090937F0280937E020E94CC
:10094000110380917C0260917E020E94A903DF91D5
:10095000CF91FF90EF90DF90CF90BF90AF909F909E
:100960008F90089583E00E94C7008093570282E031
:100970000E94C7008093560281E00E94C7008093C6
:10098000550281E061E043E00E94AE0381E065E052
:1009900042E00E94AE0381E069E041E00E94AE03C4
:1009A000809157028E32A8F590915602913188F4C9
:1009B000209155022F3268F080E090E0A0E0B0E492
:1009C0008093510290935202A0935302B093540229
:1009D00008959F32F0F0909155029F3208F477C04D
:1009E00080E090E0A0E8BFE3809351029093520230
:1009F000A0935302B0935402089580E090E0DC018C
:100A00008093510290935202A0935302B0935402E8
:100A100008958F3240F1909156029F3288F02091D4
:100A200055022E3268F480E090E0A0E8BFEB80939E
:100A3000510290935202A0935302B093540208952E
:100A40009E3288F4909155029E3268F480E090E0E6
:100A5000A0E0B0EC8093510290935202A093530215
:100A6000B093540208958E32C0F5809156028E32B2
:100A7000A0F5809155028E3280F5609151027091FF
:100A80005202809153029091540220E030E040E005
:100A900050EC0E94AB10882369F480E090E0A0E461
:100AA000B0EC8093510290935202A0935302B09302
:100AB0005402089580E090E0A0E4B0E480935102F5
:100AC00090935202A0935302B093540208959091D0
:100AD00055029E3208F09DCF90CF08954F925F92BD
:100AE0006F927F928F929F92AF92BF92CF92DF923E
:100AF000EF92FF920F931F93CF93DF93C090510219
:100B0000D0905202E0905302F0905402C0924D02F5
:100B1000D0924E02E0924F02F09250026091490250
:100B200070914A0280914B0290914C0220913902BF
:100B300030913A0240913B0250913C020E94471092
:100B4000C62FD72F182F092F862F9D2FA12FB02FFB
:100B50008093490290934A02A0934B02B0934C02B7
:100B6000C701B60120913D0230913E0240913F0203
:100B7000509140020E944610B62EA72E982E892E24
:100B8000862F9A2DA92DB82D809345029093460269
:100B9000A0934702B0934802C701B60120911E02FC
:100BA00030911F0240912002509121020E94FA11BF
:100BB0002B013C018C2F9D2FA12FB02FBC01CD010B
:100BC00020911A0230911B0240911C0250911D028B
:100BD0000E94FA119B01AC01C301B2010E944710AF
:100BE0002B013C018B2D9A2DA92DB82DBC01CD01D7
:100BF000209116023091170240911802509119026B
:100C00000E94FA119B01AC01C301B2010E9447107E
:100C1000DC01CB018093410290934202A0934302F6
:100C2000B09344028C2F9D2FA12FB02F80933902B7
:100C300090933A02A0933B02B0933C02C0923D02D3
:100C4000D0923E02E0923F02F0924002DF91CF91BB
:100C50001F910F91FF90EF90DF90CF90BF90AF90DA
:100C60009F908F907F906F905F904F9008950E941B
:100C7000B2040E946E050E94C20320915702809127
:100C8000550290E0820F911D20915602820F911D16
:100C9000843E910564F30E94A70089E999E5A1E0EB
:100CA00081509040A040E1F700000E94AA000E94FD
:100CB000210308950E94B2040E946E050E943D0423
:100CC000209157028091550290E0820F911D209152
:100CD0005602820F911D803F910564F30E9421030B
:100CE0000895F8940E9480060E9495000E949E003C
:100CF000789408956C98749A08956D98759A0895EB
:100D00000E94DB020E947A060E947D0608951F92CF
:100D10000F920FB60F9211248F939F93AF93BF93AF
:100D20008091310290913202A0913302B09134024D
:100D30000196A11DB11D8093310290933202A093C0
:100D40003302B0933402BF91AF919F918F910F9076
:100D50000FBE0F901F9018951F920F920FB60F9213
:100D600011248F939F93AF93BF93809135029091FD
:100D70003602A0913702B09138020196A11DB11D33
:100D80008093350290933602A0933702B0933802D5
:100D9000BF91AF919F918F910F900FBE0F901F90B9
:100DA0001895BC0180E090E00E94481125EE30EDDE
:100DB0004AEA50E40E94AF100E941C11462F572FA0
:100DC000682F792F10923102109232021092330262
:100DD000109234028091310290913202A09133023C
:100DE000B0913402481759076A077B0798F70E94A9
:100DF00021030895CF93DF93EC010E940D03CE01F0
:100E00000E94D106DF91CF91089584E190E00E9485
:100E1000FA060E9419038AE590E00E94250380915A
:100E20005702853158F00E9415038FEF9FE3A2E02F
:100E300081509040A040E1F700C000000E942103D3
:100E400008950E94150388E590E00E942503809193
:100E500055028F3158F00E9419038FEF9FE3A2E0F3
:100E600081509040A040E1F700C000000E942103A3
:100E70000895CF93DF93EC010E941103CE010E94ED
:100E8000D106DF91CF9108950F931F93CF93BC01AB
:100E900080E090E00E94481128E431EE42E850E4FE
:100EA0000E94AF100E941C11DC01CB01A0E0B0E059
:100EB00010923102109232021092330210923402D8
:100EC00010923502109236021092370210923802B8
:100ED000F1E0C0E040913102509132026091330262
:100EE0007091340200913502109136022091370240
:100EF00030913802EF2F481759076A077B0708F42B
:100F0000EC2FEE2349F44F2F081719072A073B0748
:100F100008F44C2F4423F1F20E942103CF911F913A
:100F20000F9108950F931F93CF93DF938C01EB01E3
:100F300088E290E00E94FA060E9415038FEF9FE777
:100F4000ADE081509040A040E1F700C00000209744
:100F500031F4C80163E070E00E94250303C0C801BA
:100F60000E9444070E94A7008FEF9FE3A2E08150F8
:100F70009040A040E1F700C000000E94AA00DF916D
:100F8000CF911F910F9108950F931F93CF93DF93EC
:100F90008C01EB0182E390E00E94FA060E941903A3
:100FA0008FEF9FE7ADE081509040A040E1F700C097
:100FB0000000209731F4C80161E070E00E94250331
:100FC00003C0C8010E9444070E94A7008FEF9FE35F
:100FD000A2E081509040A040E1F700C000000E94D4
:100FE000AA00DF91CF911F910F91089588E590E0BD
:100FF00061E070E00E94920784E190E00E94FA06AE
:1010000083EB90E061E070E00E94C40785E090E02F
:101010000E94FA068FEF9FE7A6E181509040A04022
:10102000E1F700C000000E9421038FEF6FEF0E94E4
:10103000A9030895CF93DF93EC010E941D03CE0115
:10104000880F991F63E070E00E942503DF91CF9124
:101050000895CF93DF93EC010E949D03CE01880F8A
:10106000991F61E070E00E942503DF91CF91089500
:10107000CF93DF93EC010E94A103CE01880F991F4B
:1010800063E070E00E942503DF91CF910895CF9334
:10109000DF93EC010E94A503CE01880F991F61E048
:1010A00070E00E942503DF91CF91089586E69EE0CF
:1010B0000197F1F700004098419880E388B9429A7F
:1010C000EFEFF7E43197F1F700C000004298E6E651
:1010D000FEE03197F1F700004098419888B9429AB4
:1010E000EFEFF7E43197F1F700C000004298E6E631
:1010F000FEE03197F1F700004098419888B9429A94
:101100008FEF97E40197F1F700C000004298E6E600
:10111000FEE03197F1F700004098419880E288B9ED
:10112000429A8FEF97E40197F1F700C000004298D0
:10113000089598B19F7098B998B1282F207F922B6D
:1011400098B940984198429AEFEFF7E43197F1F758
:1011500000C00000429898B19F7098B998B18295EC
:10116000807F892B88B940984198429A8FEF97E405
:101170000197F1F700C0000042980895823079F09D
:10118000833018F48130C9F405C0833069F08430AD
:10119000A1F40FC0862F81580E9499080895862FC8
:1011A00081540E9499080895862F8D560E949908AF
:1011B0000895862F8D520E94990808950E9456081E
:1011C00086E69EE00197F1F7000088E20E94990808
:1011D00081E00E94990886E00E9499088EE00E94B2
:1011E000990880E80E949908089598B19F7098B96D
:1011F00098B1282F207F922B98B9409A4198429A13
:10120000EFEFF7E43197F1F700C00000429898B192
:101210009F7098B998B18295807F892B88B9409A40
:101220004198429A8FEF97E40197F1F700C00000D0
:1012300042980895CF93DF93EC018881882331F0A1
:1012400021960E94F50889918823D9F7DF91CF91E3
:10125000089580E80E94990808950F931F93CF93F3
:10126000DF938A01E901882311F0662319F40E94B3
:10127000290902C00E94BE08C530D10571F4C80119
:1012800060E177E20E945D12CB01C0969093670205
:10129000809366020E94F50803C0C430D105B9F4FA
:1012A000C80168EE73E00E945D12CB017093690281
:1012B000609368026AE070E00E945D12C0969093AD
:1012C0008502809384020E94F50881E001C080E0DD
:1012D000C330D10511F08130B1F4C80164E670E08B
:1012E0000E945D12CB0170936902609368026AE00C
:1012F00070E00E945D12C0969093810280938002FC
:101300000E94F50881E0C230D10511F08130B1F4BE
:101310002AE030E0C801B9010E945D12CB01709350
:10132000690260936802B9010E945D12C0969093B1
:101330007B0280937A020E94F50881E0C130D105DA
:1013400011F0813061F4C8016AE070E00E945D1222
:10135000C09690938302809382020E94F508C63063
:10136000D1051CF085E40E94F508DF91CF911F9113
:101370000F9108953B9A43980895259A2D9A0895C0
:10138000269A2E9AEAE0F1E080818F6B8083EBE071
:10139000F1E08081806480830895E1E8F0E01082CC
:1013A0008CEF8093850081E08093840093E090939C
:1013B00089008FEF8093880090938B0080938A0040
:1013C00090938D0080938C0090938700809386008B
:1013D0008BEA80938000109282008CE080830895D5
:1013E00010928900682F70E080E090E00E94481120
:1013F0002BE734E14EEE5FE30E94AF1020E030E0D7
:101400004CE052E40E9447100E941C116093880037
:10141000089510928B00682F70E080E090E00E94A9
:1014200048112BE734E14EEE5FE30E94AF1020E05D
:1014300030E04CE052E40E9447100E941C1160937F
:101440008A00089583E0809389008FEF809388005D
:10145000089583E080938B008FEF80938A00089536
:1014600080EA809330020E94F00982E393EBA2E0CD
:1014700081509040A040E1F700C000C08091300250
:10148000815080933002853570F784E60E94090A06
:101490008FEF9FE7A6E181509040A040E1F700C0A8
:1014A000000084E5809330020E94F00989E999E503
:1014B000A1E081509040A040E1F70000809130020F
:1014C0008F5F80933002823878F388E70E94090AA0
:1014D000089580EA809330020E94F00989E999E535
:1014E000A1E081509040A040E1F7000080913002DF
:1014F000815080933002853578F785E50E94090A8E
:101500008FEF9FE7A6E181509040A040E1F700C037
:10151000000084E5809330020E94F00989E999E592
:10152000A1E081509040A040E1F70000809130029E
:101530008F5F80933002823878F308950F931F9362
:10154000CF93DF93EC0182E880933002C238D1055B
:10155000A4F40E94F00989E999E5A1E08150904046
:10156000A040E1F70000809130028150809330026A
:10157000282F30E0C217D30764F388E78093300246
:1015800080910F02803441F01FC080913002873378
:1015900031F40E94AA0018C088E709E011E00E9417
:1015A000090A86E696E0A2E081509040A040E1F76B
:1015B00080913002815080933002D8018C918074E8
:1015C00080930F02803409F30E94A7008CEC9CECFE
:1015D000A1E081509040A040E1F700C00E94AA0025
:1015E0008C2FC0933002C03A90F40E94F0098FEF24
:1015F0009FE1A1E081509040A040E1F700C00000D1
:10160000809130028F5F80933002803A70F3DF91D7
:10161000CF911F910F910895CF93DF9382E880932C
:1016200030020E94F00989E999E5A1E081509040DB
:10163000A040E1F700008091300281508093300299
:10164000873578F78AE58093300280910F028034E5
:1016500041F041C080913002873331F40E94AA00EA
:1016600017C08AE5C9E0D1E00E94090A86E696E043
:10167000A2E081509040A040E1F78091300281507B
:10168000809330028881807480930F02803411F33C
:101690000E94A7008CEC9CECA1E081509040A040FF
:1016A000E1F700C00E94AA0086E58093300222C0C4
:1016B0000E94F0098FEF9FE1A1E081509040A0408F
:1016C000E1F700C00000809130028F5F809330020C
:1016D000803A70F311C00E94A7008CEC9CECA1E052
:1016E00081509040A040E1F700C00E94AA0086E52A
:1016F0008093300286E5DCCFDF91CF91089588E7B3
:10170000809330020E94F00989E999E5A1E08150B7
:101710009040A040E1F7000080913002815080931A
:1017200030028D3678F788E70E94090A8FEF9FE72D
:10173000A4E081509040A040E1F700C000008CE69A
:10174000809330020E94F00989E999E5A1E0815077
:101750009040A040E1F70000809130028F5F8093BD
:101760003002883778F30895CF93DF93EB01009729
:1017700089F484EB64EB0E94A90384E190E00E9469
:10178000390783E490E061E070E00E9492070E94D4
:101790003706A0C081309105D1F48FEF9FE7A4E018
:1017A00081509040A040E1F700C0000084EB64EB62
:1017B0000E94A9038CE390E00E94FA0684E590E081
:1017C00060E070E00E94C4070E94370683C0823048
:1017D000910519F40E9437067DC08330910591F47C
:1017E00084E690E060E070E00E94C4070E94370643
:1017F00084E690E060E070E00E949207CE010E94D3
:101800009E0A68C08430910549F582E80E94F0097B
:1018100088E70E94090A84EB64EB0E94A90389EA25
:1018200090E061E070E00E94920787E190E00E9402
:1018300039078AE090E00E94FA068FE090E00E946B
:1018400039078BE690E00E949E0A8FE090E00E94AC
:10185000FA0684E690E00E9439073CC08530910585
:10186000A9F482E390E00E94FA0680E690E00E94EC
:101870009E0A8CE390E00E94390788E590E060E0E2
:1018800070E00E94C4070E94370624C0863091058C
:1018900009F588E70E94090A86E490E00E94FA06AA
:1018A00085E590E00E949E0A80E590E00E9439075D
:1018B00088E590E060E070E00E94C40782E390E079
:1018C0000E94390788E590E060E070E00E94C4075C
:1018D0000E943706DF91CF910895CF93DF93EC01FB
:1018E0000097D9F484EB64EB0E94A90385E590E0AE
:1018F00060E070E00E94C40784E190E00E94390734
:101900000E947F0B84E690E060E070E00E94920706
:101910000E9437060E9421032CC081309105D9F422
:1019200084EB64EB0E94A90385E590E060E070E041
:101930000E94C40784E190E00E9439070E947F0B57
:1019400084E690E060E070E00E94C4070E942103FA
:1019500022E030E016C08230910559F486E968EC47
:101960000E94A90383EC90E00E94FA0621E030E097
:1019700008C0C330D10521F40E9437060E9421031C
:1019800002C0822F932FDF91CF910895CF93DF93E1
:10199000009779F48AE590E00E949E0A84EB90E03B
:1019A00060E070E00E94C4070E94370681E090E08A
:1019B00065C08130910509F061C084EB64EB0E9441
:1019C000A9038CE490E061E070E00E94C40789E123
:1019D00090E00E9439070E94690A86E990E00E941F
:1019E000FA068FEF9FEFACE281509040A040E1F704
:1019F00000C00000C0912802D09129020E9400027C
:101A00002AE232E0CC0FDD1FC20FD31F99838883F7
:101A10008091280290912902AC014F5F5F4F509353
:101A2000290240932802880F991F280F391FD901D6
:101A30008D919C910E94BB0284EB65EA0E94A903F0
:101A40008CE890E00E9439070E940C0B82E390E042
:101A50000E94390789E490E061E070E00E94C407C9
:101A60008EEB6CED0E94A9038EE190E00E94390795
:101A70000E9437068FEF6FEF0E94A903DF91CF918D
:101A80000895CF93DF93EC01009709F07DC06115B5
:101A9000710509F45AC08EEB90E00E94FA060E948C
:101AA000F6070E94000290932502809324020E9470
:101AB000BB0282E390E00E9439070E9421038FEF6E
:101AC0009FE7A6E181509040A040E1F700C00000F0
:101AD0008AE390E061E070E00E9492070E94210397
:101AE0008FEF9FE7A6E181509040A040E1F700C052
:101AF00000008FEF63EC0E94A90386E990E00E944A
:101B000039070E9421038FEF9FE7A6E181509040A3
:101B1000A040E1F700C000000E94A50389E999E513
:101B2000ACE181509040A040E1F7000084EB64EB11
:101B30000E94A9030E9421038FEF9FEFA9E5815026
:101B40009040A040E1F700C0000020912C023091AD
:101B50002D0280912402909125022817390781F4E3
:101B60000E94A7008FEF9FEFA8E081509040A04017
:101B7000E1F700C000000E94AA000E94300A04C0E1
:101B80008AE090E00E94FA06C130D10581F40E94FB
:101B90001503A6E6BEE01197F1F7000080E590E09E
:101BA00060E070E00E9492070E9437060BC0C230CE
:101BB000D10541F483E490E061E070E00E94C40745
:101BC0000E943706DF91CF910895CF93DF93EB0109
:101BD000009709F08EC08DE590E060E070E00E9413
:101BE000C407209709F45FC083E790E00E94FA06DB
:101BF0000E94F6078AE090E00E9439070E940002E6
:101C000090932302809322020E94BB0282E390E021
:101C10000E9439070E9421038FEF9FE7A6E18150C0
:101C20009040A040E1F700C000008CE390E061E04C
:101C300070E00E9492070E9421038FEF9FE7A6E1C8
:101C400081509040A040E1F700C000008FEF63ECAE
:101C50000E94A90386E990E00E9439070E942103AF
:101C60008FEF9FE7A6E181509040A040E1F700C0D0
:101C700000000E94A5038FEF9FEBA8E181509040E8
:101C8000A040E1F700C0000084EB64EB0E94A903D0
:101C90000E9421038FEF9FEFA9E581509040A04063
:101CA000E1F700C0000020912A0230912B028091C0
:101CB0002202909123022817390751F48FE090E017
:101CC0000E94FA060E94300A8FE090E00E943907D5
:101CD00083E290E00E94390784E690E060E070E0E3
:101CE0000E94C40786E966E90E94A9030E9437069C
:101CF0000BC08130910541F488EC90E060E070E029
:101D00000E94C4070E943706DF91CF910895009783
:101D1000D9F484EB64EB0E94A90384E690E060E0D0
:101D200070E00E94C40782E390E00E9439070E949D
:101D30007F0B84E690E060E070E00E9492070E94D2
:101D400037060E94210326C081309105D9F484EB27
:101D500064EB0E94A90384E690E060E070E00E94DA
:101D6000920782E390E00E9439070E947F0B84E68D
:101D700090E060E070E00E94C4070E94210322E02E
:101D800030E009C08230910529F40E94370621E035
:101D900030E001C00895822F932F08950097A9F491
:101DA00084EB64EB0E94A90380E890E060E070E0BF
:101DB0000E94920782E390E00E9439070E94300A55
:101DC00084EB61EE0E94A90308958130910559F4D6
:101DD000CB010E949E0A8EEB90E060E070E00E94D2
:101DE000C4070E943706089580912A0290912B0221
:101DF0008130910551F480912C0290912D02823016
:101E0000910581F082E090E008958230910569F4B7
:101E100080912C0290912D028330910549F082E04F
:101E200090E0089583E090E0089582E090E00895C6
:101E300081E090E008950E941A010E9456080E94D5
:101E40002D010E9471060E94AC000E94DE080E94D3
:101E5000BA090E94DB020E94EC020E94B3000E94B9
:101E6000BA000E94BD090E94C0090E94CD098FEFEF
:101E70009FE7A4E081509040A040E1F700C000003F
:101E800084E090E06AE570E00E94B40B81E090E0AD
:101E90006AE570E00E94B40B82E090E00E946D0C55
:101EA00081E090E00E94C60C83E090E00E946D0CFF
:101EB0008EE190E00E94FA0680E090E06AE570E032
:101EC0000E94B40B84EB64EB0E94A90380E090E0D5
:101ED00061E070E00E94410D81E090E060E070E020
:101EE0000E94410D80E090E061E070E00E94E50D0D
:101EF00082E090E060E070E00E94410D85E090E0BB
:101F00006AE570E00E94B40B82E090E00E946D0CE4
:101F100081E090E00E94C60C83E090E00E946D0C8E
:101F200080E090E06AE570E00E94B40B80912C02A2
:101F300090912D022091240230912502821793075F
:101F4000E1F40E94A7008FEF9FEFA8E0815090403E
:101F5000A040E1F700C000000E94AA0080E090E0ED
:101F600060E070E00E94410D80EB90E061E070E085
:101F70000E9492070E94370630C0209122023091C1
:101F800023028217930799F481E090E060E070E00B
:101F90000E94410D80E090E060E070E00E94E50D5D
:101FA00082E090E060E070E00E94410D16C082E0A7
:101FB00090E060E070E00E94410D82E090E00E94BD
:101FC000870E80E090E06AE570E00E94CE0E82E02D
:101FD00090E060E070E00E94410D86E090E06AE5EC
:101FE00070E00E94B40B0E94F40E20912402309104
:101FF000250282179307A1F40E94A7008FEF9FEF9D
:10200000A8E081509040A040E1F700C000000E948D
:10201000AA0080E090E060E070E00E94410D24C0E2
:1020200020912202309123028217930769F481E004
:1020300090E060E070E00E94410D80E090E060E0A0
:1020400070E00E94E50D10C082E090E060E070E07A
:102050000E94410D82E090E00E94870E80E090E0B7
:102060006AE570E00E94CE0E0E94A7008FEF9FEFFE
:10207000A0EEB0E081509040A040B040D9F700C041
:1020800000000E94AA0080E090E008955058BB270D
:10209000AA270ED075C166D130F06BD120F031F493
:1020A0009F3F11F41EF45BC10EF4E095E7FB51C1B4
:1020B000E92F77D180F3BA17620773078407950772
:1020C00018F071F49EF58FC10EF4E0950B2EBA2F27
:1020D000A02D0B01B90190010C01CA01A00111242E
:1020E000FF27591B99F0593F50F4503E68F11A16DA
:1020F000F040A22F232F342F4427585FF3CF46956B
:1021000037952795A795F0405395C9F77EF41F168C
:10211000BA0B620B730B840BBAF09150A1F0FF0F56
:10212000BB1F661F771F881FC2F70EC0BA0F621F42
:10213000731F841F48F4879577956795B795F79532
:102140009E3F08F0B3CF9395880F08F09927EE0FC4
:10215000979587950895D9D008F481E008950CD01B
:102160000FC107D140F0FED030F021F45F3F19F0ED
:10217000F0C0511139C1F3C014D198F39923C9F3B8
:102180005523B1F3951B550BBB27AA27621773077D
:10219000840738F09F5F5F4F220F331F441FAA1F31
:1021A000A9F333D00E2E3AF0E0E830D091505040F1
:1021B000E695001CCAF729D0FE2F27D0660F771F9F
:1021C000881FBB1F261737074807AB07B0E809F081
:1021D000BB0B802DBF01FF2793585F4F2AF09E3F16
:1021E000510568F0B6C000C15F3FECF3983EDCF3E8
:1021F000869577956795B795F7959F5FC9F7880F8F
:10220000911D9695879597F90895E1E0660F771FE0
:10221000881FBB1F621773078407BA0720F0621B71
:10222000730B840BBA0BEE1F88F7E095089504D06A
:102230006894B111D9C00895BCD088F09F5790F030
:10224000B92F9927B751A0F0D1F0660F771F881FDB
:10225000991F1AF0BA95C9F712C0B13081F0C3D0F6
:10226000B1E00895C0C0672F782F8827B85F39F094
:10227000B93FCCF3869577956795B395D9F73EF43A
:1022800090958095709561957F4F8F4F9F4F0895E2
:10229000E89409C097FB3EF4909580957095619500
:1022A0007F4F8F4F9F4F9923A9F0F92F96E9BB27B6
:1022B0009395F695879577956795B795F111F8CF32
:1022C000FAF4BB0F11F460FF1BC06F5F7F4F8F4F9D
:1022D0009F4F16C0882311F096E911C0772321F093
:1022E0009EE8872F762F05C0662371F096E8862F2B
:1022F00070E060E02AF09A95660F771F881FDAF782
:10230000880F9695879597F90895990F0008550FAE
:10231000AA0BE0E8FEEF16161706E807F907C0F06B
:1023200012161306E407F50798F0621B730B840B73
:10233000950B39F40A2661F0232B242B252B21F44D
:1023400008950A2609F4A140A6958FEF811D811DED
:10235000089597F99F6780E870E060E008959FEF27
:1023600080EC089500240A9416161706180609062C
:10237000089500240A9412161306140605060895FB
:10238000092E0394000C11F4882352F0BB0F40F483
:10239000BF2B11F460FF04C06F5F7F4F8F4F9F4FC3
:1023A000089557FD9058440F551F59F05F3F71F045
:1023B0004795880F97FB991F61F09F3F79F08795AC
:1023C0000895121613061406551FF2CF4695F1DF35
:1023D00008C0161617061806991FF1CF86957105C5
:1023E000610508940895E894BB2766277727CB01F9
:1023F00097F908950BD0C4CFB5DF28F0BADF18F0F5
:10240000952309F0A6CFABCF1124EECFCADFA0F3FE
:10241000959FD1F3950F50E0551F629FF001729F79
:10242000BB27F00DB11D639FAA27F00DB11DAA1F98
:10243000649F6627B00DA11D661F829F2227B00DE5
:10244000A11D621F739FB00DA11D621F839FA00D70
:10245000611D221F749F3327A00D611D231F849FC0
:10246000600D211D822F762F6A2F11249F57504017
:102470008AF0E1F088234AF0EE0FFF1FBB1F661FB2
:10248000771F881F91505040A9F79E3F510570F06B
:1024900060CFAACF5F3FECF3983EDCF3869577954B
:1024A0006795B795F795E7959F5FC1F7FE2B880F66
:1024B000911D9695879597F90895AA1BBB1B51E12D
:1024C00007C0AA1FBB1FA617B70710F0A61BB70BA4
:1024D000881F991F5A95A9F780959095BC01CD0149
:0624E0000895F894FFCFFF
:1024E60052656400477265656E00426C7565004012
:1024F6000100FFFFC800CDCCCC3E85EB513E00006D
:02250600204172
:00000001FF
